{
  "contractName": "PingPong",
  "abi": [
    {
      "inputs": [],
      "payable": false,
      "stateMutability": "nonpayable",
      "type": "constructor",
      "signature": "constructor"
    },
    {
      "payable": true,
      "stateMutability": "payable",
      "type": "fallback"
    },
    {
      "anonymous": false,
      "inputs": [
        {
          "indexed": true,
          "name": "account",
          "type": "address"
        },
        {
          "indexed": false,
          "name": "value",
          "type": "uint256"
        }
      ],
      "name": "Pong",
      "type": "event",
      "signature": "0x12327ae0af6b4628917906ebd4caa7fb03809d40f27dbdbd3854df5ed4d504f0"
    },
    {
      "constant": false,
      "inputs": [],
      "name": "owner",
      "outputs": [
        {
          "name": "",
          "type": "address"
        }
      ],
      "payable": false,
      "stateMutability": "nonpayable",
      "type": "function",
      "signature": "0x8da5cb5b"
    },
    {
      "constant": false,
      "inputs": [],
      "name": "total",
      "outputs": [
        {
          "name": "",
          "type": "uint256"
        }
      ],
      "payable": false,
      "stateMutability": "nonpayable",
      "type": "function",
      "signature": "0x2ddbd13a"
    }
  ],
  "bytecode": "0x608060405234801561001057600080fd5b506000808190555033600160006101000a81548173ffffffffffffffffffffffffffffffffffffffff021916908373ffffffffffffffffffffffffffffffffffffffff160217905550610290806100686000396000f30060806040526004361061004c576000357c0100000000000000000000000000000000000000000000000000000000900463ffffffff1680632ddbd13a146100ff5780638da5cb5b1461012a575b3373ffffffffffffffffffffffffffffffffffffffff166108fc349081150290604051600060405180830381858888f19350505050158015610092573d6000803e3d6000fd5b503373ffffffffffffffffffffffffffffffffffffffff167f12327ae0af6b4628917906ebd4caa7fb03809d40f27dbdbd3854df5ed4d504f0346040518082815260200191505060405180910390a26100f7600160005461018190919063ffffffff16565b600081905550005b34801561010b57600080fd5b50610114610231565b6040518082815260200191505060405180910390f35b34801561013657600080fd5b5061013f61023a565b604051808273ffffffffffffffffffffffffffffffffffffffff1673ffffffffffffffffffffffffffffffffffffffff16815260200191505060405180910390f35b6000808284019050838110151515610227576040517f08c379a00000000000000000000000000000000000000000000000000000000081526004018080602001828103825260278152602001807f63206d7573742062652067726561746572207468616e2062206f72206571756181526020017f6c20746f20612e0000000000000000000000000000000000000000000000000081525060400191505060405180910390fd5b8091505092915050565b60008054905090565b6000600160009054906101000a900473ffffffffffffffffffffffffffffffffffffffff169050905600a165627a7a72305820e453002e640c2b2c98101aa89a56b4c84ce6344427e7236957bcfcc9e36efa5d0029",
  "source": "pragma solidity ^0.4.25;\n\n/**\n * @title SafeMath\n * @dev Math operations with safety checks that revert on error\n */\nlibrary SafeMath {\n  /**\n  * @dev Multiplies two numbers, reverts on overflow.\n  */\n  function mul(uint256 a, uint256 b) internal pure returns (uint256) {\n    // Gas optimization: this is cheaper than requiring 'a' not being zero, but the\n    // benefit is lost if 'b' is also tested.\n    // See: https://github.com/OpenZeppelin/openzeppelin-solidity/pull/522\n    if (a == 0) {\n      return 0;\n    }\n\n    uint256 c = a * b;\n    require(c / a == b, \"overflow in multiplies operation.\");\n\n    return c;\n  }\n\n  /**\n  * @dev Integer division of two numbers truncating the quotient, reverts on division by zero.\n  */\n  function div(uint256 a, uint256 b) internal pure returns (uint256) {\n    // Solidity only automatically asserts when dividing by 0\n    require(b > 0, \"b must be greater than zero.\");\n    uint256 c = a / b;\n    // assert(a == b * c + a % b); // There is no case in which this doesn't hold\n\n    return c;\n  }\n\n  /**\n  * @dev Subtracts two numbers, reverts on overflow (i.e. if subtrahend is greater than minuend).\n  */\n  function sub(uint256 a, uint256 b) internal pure returns (uint256) {\n    require(b <= a, \"a must be greater than b or equal to b.\");\n    uint256 c = a - b;\n\n    return c;\n  }\n\n  /**\n  * @dev Adds two numbers, reverts on overflow.\n  */\n  function add(uint256 a, uint256 b) internal pure returns (uint256) {\n    uint256 c = a + b;\n    require(c >= a, \"c must be greater than b or equal to a.\");\n\n    return c;\n  }\n\n  /**\n  * @dev Divides two numbers and returns the remainder (unsigned integer modulo),\n  * reverts when dividing by zero.\n  */\n  function mod(uint256 a, uint256 b) internal pure returns (uint256) {\n    require(b != 0, \"b must not be zero.\");\n    return a % b;\n  }\n}\n\n/**\n * @title PingPong\n * @dev ping pong wei\n */\ncontract PingPong {\n  using SafeMath for uint256;\n  uint256 _count;\n  address _owner;\n\n  event Pong(address indexed account, uint256 value);\n\n  constructor() public {\n    _count = 0;\n    _owner = msg.sender;\n  }\n\n  function () external payable {\n      msg.sender.transfer(msg.value);\n      emit Pong(msg.sender, msg.value);\n\n      _count = _count.add(1);\n  }\n\n  function owner() public returns (address) {\n    return _owner;\n  }\n\n  function total() public returns (uint) {\n    return _count;\n  }\n}\n\n",
  "sourcePath": "/Users/morenice/Sources/open-source/til/blockchain/ethereum/ping-pong/contracts/Pingpong.sol",
  "compiler": {
    "name": "solc",
    "version": "0.4.25+commit.59dbf8f1.Emscripten.clang"
  },
  "schemaVersion": "3.0.0",
  "updatedAt": "2018-12-21T06:09:44.938Z",
  "devdoc": {
    "methods": {},
    "title": "PingPong"
  },
  "userdoc": {
    "methods": {}
  }
}